{
  "contractName": "Splitter",
  "abi": [
    {
      "anonymous": false,
      "inputs": [
        {
          "indexed": false,
          "name": "value",
          "type": "uint256"
        },
        {
          "indexed": false,
          "name": "alice",
          "type": "address"
        },
        {
          "indexed": false,
          "name": "bob",
          "type": "address"
        },
        {
          "indexed": false,
          "name": "carol",
          "type": "address"
        }
      ],
      "name": "LogSplit",
      "type": "event"
    },
    {
      "constant": false,
      "inputs": [
        {
          "name": "bob",
          "type": "address"
        },
        {
          "name": "carol",
          "type": "address"
        }
      ],
      "name": "split",
      "outputs": [],
      "payable": true,
      "stateMutability": "payable",
      "type": "function"
    }
  ],
  "bytecode": "0x608060405234801561001057600080fd5b506102ce806100206000396000f3fe60806040526004361061001e5760003560e01c80630f2c932914610023575b600080fd5b6100856004803603604081101561003957600080fd5b81019080803573ffffffffffffffffffffffffffffffffffffffff169060200190929190803573ffffffffffffffffffffffffffffffffffffffff169060200190929190505050610087565b005b60003490506000811180156100a657506000600282816100a357fe5b06145b6100fb576040517f08c379a000000000000000000000000000000000000000000000000000000000815260040180806020018281038252602d815260200180610276602d913960400191505060405180910390fd5b8273ffffffffffffffffffffffffffffffffffffffff166108fc6002838161011f57fe5b049081150290604051600060405180830381858888f1935050505015801561014b573d6000803e3d6000fd5b508173ffffffffffffffffffffffffffffffffffffffff166108fc6002838161017057fe5b049081150290604051600060405180830381858888f1935050505015801561019c573d6000803e3d6000fd5b507fb3e820495100a7467dcb0c573ea9615c79f769ea0129e07506ad0a239503bfd881338585604051808581526020018473ffffffffffffffffffffffffffffffffffffffff1673ffffffffffffffffffffffffffffffffffffffff1681526020018373ffffffffffffffffffffffffffffffffffffffff1673ffffffffffffffffffffffffffffffffffffffff1681526020018273ffffffffffffffffffffffffffffffffffffffff1673ffffffffffffffffffffffffffffffffffffffff16815260200194505050505060405180910390a150505056fe56616c7565206d7573742062652067726561746572207468616e203020616e64206d757374206265206576656ea165627a7a72305820246cb6b3497b822628e1bd74c816bb01896b7f2be686651e8fe574b4992b0d030029",
  "source": "pragma solidity ^0.5.8;\r\n\r\ncontract Splitter {\r\n\r\n    event LogSplit(uint value, address alice, address bob, address carol);\r\n\r\n    function split(address payable bob, address payable carol) public payable {\r\n        uint value = msg.value;\r\n        require((value > 0) && (value % 2 == 0), \"Value must be greater than 0 and must be even\");\r\n        bob.transfer(value/2);\r\n        carol.transfer(value/2);\r\n        emit LogSplit(value, msg.sender, bob, carol);\r\n    }\r\n}",
  "sourcePath": "C:/Users/Jimy/DAPPS/Projects/Splitter/contracts/Splitter.sol",
  "compiler": {
    "name": "solc",
    "version": "0.5.8+commit.23d335f2.Emscripten.clang"
  },
  "schemaVersion": "3.0.16",
  "updatedAt": "2019-09-17T14:22:54.934Z",
  "devdoc": {
    "methods": {}
  },
  "userdoc": {
    "methods": {}
  }
}